:100000000C9462000C948A000C948A000C948A0070
:100010000C948A000C948A000C948A000C948A0038
:100020000C948A000C948A000C948A000C948A0028
:100030000C948A000C948A000C948A000C948A0018
:100040000C94F6010C948A000C9466020C94400205
:100050000C948A000C948A000C948A000C948A00F8
:100060000C948A000C948A000000000024002700F1
:100070002A000000000023002600290000000000E4
:10008000250028002B0004040404040404040202D4
:100090000202020203030303030301020408102007
:1000A0004080010204081020010204081020000012
:1000B0000008000201000003040700000000000027
:1000C0000000980211241FBECFEFD8E0DEBFCDBFE5
:1000D00011E0A0E0B1E0E4E2F9E002C005900D9289
:1000E000A231B107D9F721E0A2E1B1E001C01D9230
:1000F000A83EB207E1F710E0C2E6D0E004C02197C5
:10010000FE010E948504C136D107C9F70E94D202C0
:100110000C9490040C940000833081F028F481301A
:1001200099F08230A1F008958730A9F08830B9F0B5
:100130008430D1F4809180008F7D03C08091800055
:100140008F7780938000089584B58F7702C084B53F
:100150008F7D84BD08958091B0008F7703C080911A
:10016000B0008F7D8093B00008951F93CF93DF93ED
:10017000282F30E0F901E255FF4F8491F901E6564E
:10018000FF4FD491F901EA57FF4FC491CC23C1F03E
:10019000162F81110E948C00EC2FF0E0EE0FFF1F54
:1001A000E458FF4FA591B4919FB7F894111104C082
:1001B0008C91D095D82302C0EC91DE2BDC939FBFAD
:1001C000DF91CF911F910895CF92DF92EF92FF922E
:1001D0000F931F93CF93DF936C017A018B01C0E0E3
:1001E000D0E0CE15DF0581F0D8016D918D01D601EB
:1001F000ED91FC910190F081E02DC6010995892BCC
:1002000011F02196EECF7E01C701DF91CF911F91B2
:100210000F91FF90EF90DF90CF900895089580E0C8
:1002200090E00895FC01538D448D252F30E0842FFC
:1002300090E0821B930B541710F0CF96089501970E
:100240000895FC01918D828D981761F0828DDF01F8
:10025000A80FB11D5D968C91928D9F5F9F73928FB9
:1002600090E008958FEF9FEF0895FC01918D828DAE
:10027000981731F0828DE80FF11D858D90E008957B
:100280008FEF9FEF0895FC01918D228D892F90E0D3
:10029000805C9F4F821B91098F73992708958BE192
:1002A00091E00E94430121E0892B09F420E0822F94
:1002B0000895FC01848DDF01A80FB11DA35ABF4F23
:1002C0002C91848D90E001968F739927848FA68955
:1002D000B7892C93A089B1898C91837080648C93A9
:1002E000938D848D981306C00288F389E02D808158
:1002F0008F7D80830895EF92FF920F931F93CF938A
:10030000DF93EC0181E0888F9B8D8C8D981305C065
:10031000E889F989808185FD26C0F62E0B8D10E0D5
:100320000F5F1F4F0F731127E02E8C8DE8120CC04A
:100330000FB607FCFACFE889F989808185FFF5CFF0
:10034000CE010E945901F1CF8B8DFE01E80FF11D06
:10035000E35AFF4FF0829FB7F8940B8FEA89FB892D
:10036000808180620AC09FB7F894EE89FF8960831C
:10037000E889F98980818370806480839FBF81E0F0
:1003800090E0DF91CF911F910F91FF90EF90089532
:10039000CF93DF93EC01888D8823C9F0EA89FB892C
:1003A000808185FD05C0A889B9898C9186FD0FC023
:1003B0000FB607FCF5CF808185FFF2CFA889B989F8
:1003C0008C9185FFEDCFCE010E945901E7CFDF91DF
:1003D000CF91089580E090E0892B29F00E944F0191
:1003E00081110C94000008950E948B041F920F92BB
:1003F0000FB60F9211242F933F938F939F93AF9338
:10040000BF938091170190911801A0911901B091AB
:100410001A013091160123E0230F2D3720F40196A5
:10042000A11DB11D05C026E8230F0296A11DB11D17
:10043000209316018093170190931801A09319013E
:10044000B0931A018091120190911301A0911401AF
:10045000B09115010196A11DB11D809312019093D9
:100460001301A0931401B0931501BF91AF919F9117
:100470008F913F912F910F900FBE0F901F90189565
:100480001F920F920FB60F9211242F933F934F9309
:100490005F936F937F938F939F93AF93BF93EF93EC
:1004A000FF938BE191E00E945901FF91EF91BF9181
:1004B000AF919F918F917F916F915F914F913F91FC
:1004C0002F910F900FBE0F901F9018951F920F92B3
:1004D0000FB60F9211242F938F939F93EF93FF9357
:1004E000E0912B01F0912C018081E0913101F0919C
:1004F000320182FD12C09081809134018F5F8F7331
:1005000020913501821751F0E0913401F0E0E55E71
:10051000FE4F958F8093340101C08081FF91EF9150
:100520009F918F912F910F900FBE0F901F90189554
:10053000EBE1F1E01382128288EE93E0A0E0B0E0FC
:1005400084839583A683B78384E091E0918380833D
:1005500085EC90E09587848784EC90E09787868788
:1005600080EC90E0918B808B81EC90E0938B828B80
:1005700082EC90E0958B848B86EC90E0978B868B59
:10058000118E128E138E148EE9ECF1E083E08687D3
:1005900086E08787E8EBF1E094E0908395E0918333
:1005A00082830895CF93DF93CDB7DEB7A0970FB6C0
:1005B000F894DEBF0FBECDBF789484B5826084BD51
:1005C00084B5816084BD85B5826085BD85B5816057
:1005D00085BD80916E00816080936E0010928100D5
:1005E0008091810082608093810080918100816090
:1005F0008093810080918000816080938000809151
:10060000B10084608093B1008091B00081608093DC
:10061000B00080917A00846080937A0080917A00A3
:10062000826080937A0080917A00816080937A0062
:1006300080917A00806880937A001092C1000FB692
:10064000F894A89580916000886180936000109272
:1006500060000FBEE0912B01F0912C0182E08083BD
:10066000E0912701F09128011082E0912901F09199
:100670002A0180E1808310923301E0912F01F091F3
:10068000300186E28083E0912D01F0912E0180817E
:1006900080618083E0912D01F0912E01808188603E
:1006A0008083E0912D01F0912E018081806880830C
:1006B000E0912D01F0912E0180818F7D80836091EA
:1006C000D7018BE191E00E947B018BE191E00E94D8
:1006D0004301892BD1F30AE910E066E8E62E60E0D9
:1006E000F62E79ECC72E71E0D72E8BE191E00E94B7
:1006F0004301892BD1F38BE191E00E942101D601C6
:100700008C939091D80189130CC098E088E10FB6C2
:10071000F894A895809360000FBE90936000A89510
:10072000FFCF813001F5F8014491F70184918823CE
:10073000D1F090E0880F991FFC01E859FF4F2591F7
:100740003491FC01E458FF4F659174915FB7F894C0
:10075000F9019081842F809598239083FB019081EB
:10076000892380835FBFFFEFCF1ADF0A8C9182302D
:10077000C9F4F8012491F7018491882399F090E05D
:10078000880F991FFC01E859FF4FA591B491FC0116
:10079000E458FF4F859194919FB7F8948C91822BE8
:1007A0008C939FBF0F5F1F4FFFEFEF1AFF0A80E090
:1007B000083A180709F099CFAA24A39432E0B32E7F
:1007C00080E1E9ECF1E0DE01519601900D928A950D
:1007D000E1F76091B8018BE191E00E947B018BE130
:1007E00091E00E944301892BD1F328EBE22E21E016
:1007F000F22E6E0191E1C90ED11C10E08BE191E067
:100800000E944301892BD1F38BE191E00E942101E9
:10081000F70183839091B90189134AC080E1FE01F9
:100820007196DE01119601900D928A95E1F7CE0145
:1008300001966C019AEDE92E91E0F92E00E010E0AE
:10084000F60181916F01813009F5F801E255FF4F02
:100850008491F801E656FF4FE491F801EA57FF4F03
:100860009490992061F081110E948C00E92DF0E0B4
:10087000EE0FFF1FEE58FF4FA591B4918C91809120
:10088000D901F70181113FC0A08202C0F701108297
:10089000F70161917F018BE191E00E947B010F5F85
:1008A0001F4F0E30110509F0CBCF0E94EA0188CF0F
:1008B0009091BA0189130CC098E088E10FB6F894C2
:1008C000A895809360000FBE90936000A895FFCF1D
:1008D000F60191916F01923071F4813021F460E062
:1008E000812F0E94B500F7018381823021F461E0FD
:1008F000812F0E94B5001F5FFFEFEF1AFF0A1E3025
:1009000009F07CCFD2CFB082C3CFEE0FFF1F05908E
:10091000F491E02D099481E090E0F8940C94900417
:04092000F894FFCF79
:10092400000000007B01E4001201C8014301210121
:0209340035018B
:107E0000112484B714BE81FFF0D085E080938100F7
:107E100082E08093C00088E18093C10086E0809377
:107E2000C20080E18093C4008EE0C9D0259A86E02C
:107E300020E33CEF91E0309385002093840096BBD3
:107E4000B09BFECF1D9AA8958150A9F7CC24DD24C4
:107E500088248394B5E0AB2EA1E19A2EF3E0BF2EE7
:107E6000A2D0813461F49FD0082FAFD0023811F036
:107E7000013811F484E001C083E08DD089C08234E0
:107E800011F484E103C0853419F485E0A6D080C0E4
:107E9000853579F488D0E82EFF2485D0082F10E0AE
:107EA000102F00270E291F29000F111F8ED06801E7
:107EB0006FC0863521F484E090D080E0DECF843638
:107EC00009F040C070D06FD0082F6DD080E0C81688
:107ED00080E7D80618F4F601B7BEE895C0E0D1E017
:107EE00062D089930C17E1F7F0E0CF16F0E7DF06D8
:107EF00018F0F601B7BEE89568D007B600FCFDCFD4
:107F0000A601A0E0B1E02C9130E011968C91119780
:107F100090E0982F8827822B932B1296FA010C0160
:107F200087BEE89511244E5F5F4FF1E0A038BF0790
:107F300051F7F601A7BEE89507B600FCFDCF97BE46
:107F4000E89526C08437B1F42ED02DD0F82E2BD052
:107F50003CD0F601EF2C8F010F5F1F4F84911BD097
:107F6000EA94F801C1F70894C11CD11CFA94CF0C13
:107F7000D11C0EC0853739F428D08EE10CD085E9AC
:107F80000AD08FE07ACF813511F488E018D01DD067
:107F900080E101D065CF982F8091C00085FFFCCF94
:107FA0009093C60008958091C00087FFFCCF809118
:107FB000C00084FD01C0A8958091C6000895E0E648
:107FC000F0E098E1908380830895EDDF803219F02E
:107FD00088E0F5DFFFCF84E1DECF1F93182FE3DFCA
:107FE0001150E9F7F2DF1F91089580E0E8DFEE27F6
:047FF000FF270994CA
:027FFE00040479
:0400000300007E007B
:00000001FF
