:100000000C9462000C948A000C948A000C948A0070
:100010000C948A000C948A000C948A000C948A0038
:100020000C948A000C948A000C948A000C948A0028
:100030000C948A000C948A000C948A000C948A0018
:100040000C9490020C948A000C9400030C94DA0235
:100050000C948A000C948A000C948A000C948A00F8
:100060000C948A000C948A000000000024002700F1
:100070002A0000000000250028002B0000000000DE
:1000800023002600290004040404040404040202DA
:100090000202020203030303030301020408102007
:1000A0004080010204081020010204081020000012
:1000B0000008000201000003040700000000000027
:1000C0000000320311241FBECFEFD8E0DEBFCDBF4A
:1000D00011E0A0E0B1E0E2E3FBE002C005900D9288
:1000E000A231B107D9F722E0A2E1B1E001C01D922F
:1000F000A230B207E1F710E0C2E6D0E004C02197D9
:10010000FE010E949105C136D107C9F70E946C0318
:100110000C9497050C940000AF92BF92CF92DF929F
:10012000EF92FF920F931F93CF93DF936C017B01AC
:100130008B01040F151FEB015E01AE18BF08C0173D
:10014000D10759F06991D601ED91FC910190F081B0
:10015000E02DC6010995892B79F7C501DF91CF9173
:100160001F910F91FF90EF90DF90CF90BF90AF90D5
:100170000895FC01538D448D252F30E0842F90E0AD
:10018000821B930B541710F0CF9608950197089592
:10019000FC01918D828D981761F0A28DAE0FBF2F5B
:1001A000B11D5D968C91928D9F5F9F73928F90E0B1
:1001B00008958FEF9FEF0895FC01918D828D981720
:1001C00031F0828DE80FF11D858D90E008958FEF5D
:1001D0009FEF0895FC01918D228D892F90E0805C26
:1001E0009F4F821B91098F73992708958BE191E0AE
:1001F0000E94EA0021E0892B09F420E0822F089573
:1002000080E090E0892B29F00E94F60081110C9487
:1002100000000895FC01A48DA80FB92FB11DA35AA9
:10022000BF4F2C91848D90E001968F739927848F16
:10023000A689B7892C93A089B1898C918370806439
:100240008C93938D848D981306C00288F389E02DDA
:1002500080818F7D80830895EF92FF920F931F938B
:10026000CF93DF93EC0181E0888F9B8D8C8D981369
:100270001AC0E889F989808185FF15C09FB7F89475
:10028000EE89FF896083E889F989808183708064C1
:1002900080839FBF81E090E0DF91CF911F910F910C
:1002A000FF90EF900895F62E0B8D10E00F5F1F4F1B
:1002B0000F731127E02E8C8D8E110CC00FB607FC2A
:1002C000FACFE889F989808185FFF5CFCE010E94B8
:1002D0000A01F1CFEB8DEC0FFD2FF11DE35AFF4F1B
:1002E000F0829FB7F8940B8FEA89FB898081806246
:1002F000CFCFCF93DF93EC01888D8823B9F0AA8903
:10030000BB89E889F9898C9185FD03C0808186FDD0
:100310000DC00FB607FCF7CF8C9185FFF2CF80811F
:1003200085FFEDCFCE010E940A01E9CFDF91CF9189
:100330000895833081F028F4813099F08230A9F05B
:1003400008958730A9F08830C9F08430B1F48091E5
:1003500080008F7D03C0809180008F778093800024
:10036000089584B58F7784BD089584B58F7DFBCFC4
:100370008091B0008F778093B00008958091B00095
:100380008F7DF9CF1F93CF93DF93282F30E0F901B2
:10039000E255FF4F8491F901E656FF4FD491F901E0
:1003A000EA57FF4FC491CC23A9F0162F81110E9468
:1003B0009901EC2FF0E0EE0FFF1FEE58FF4FA591D3
:1003C000B4918FB7F894EC91111108C0D095DE2349
:1003D000DC938FBFDF91CF911F910895DE2BF8CF73
:1003E000CF93DF9390E0FC01E656FF4F24918A57AC
:1003F0009F4FFC0184918823D1F090E0880F991FD2
:10040000FC01E859FF4FA591B491FC01EE58FF4F54
:10041000C591D49161110EC09FB7F8948C91E22FD1
:10042000E0958E238C932881E223E8839FBFDF91A0
:10043000CF9108958FB7F894EC91E22BEC938FBF96
:10044000F6CF1F93CF93DF93182FEB0161E00E944B
:10045000F001209739F460E0812FDF91CF911F9157
:100460000C94C201CF3FD10511F461E0F5CFE12F2B
:10047000F0E0E255FF4FE491E33031F140F4E13038
:10048000B1F0E230E1F0C038D1057CF7E4CFE730DD
:1004900029F1E83059F1E430B1F7809180008062B1
:1004A00080938000D0938B00C0938A0004C084B5F1
:1004B000806884BDC7BDDF91CF911F91089584B539
:1004C000806284BDC8BDF7CF809180008068809332
:1004D0008000D0938900C0938800EDCF8091B00058
:1004E00080688093B000C093B300E5CF8091B000E6
:1004F00080628093B000C093B400DDCF8E508064E2
:1005000080937C0080917A00806480937A0080914F
:100510007A0086FDFCCF8091780090917900089553
:100520001F920F920FB60F9211242F933F938F9328
:100530009F93AF93BF938091170190911801A09161
:100540001901B0911A013091160123E0230F2D37C4
:1005500058F50196A11DB11D209316018093170136
:1005600090931801A0931901B0931A018091120180
:1005700090911301A0911401B09115010196A11D54
:10058000B11D8093120190931301A0931401B093B5
:100590001501BF91AF919F918F913F912F910F9036
:1005A0000FBE0F901F90189526E8230F0296A11DED
:1005B000B11DD2CF1F920F920FB60F9211242F931D
:1005C0003F934F935F936F937F938F939F93AF93DB
:1005D000BF93EF93FF938BE191E00E940A01FF919B
:1005E000EF91BF91AF919F918F917F916F915F91AB
:1005F0004F913F912F910F900FBE0F901F90189524
:100600001F920F920FB60F9211242F938F939F93E7
:10061000EF93FF93E0912B01F0912C018081E09109
:100620003101F091320182FD1BC090818091340133
:100630008F5F8F7320913501821741F0E091340173
:10064000F0E0E55EFE4F958F80933401FF91EF91CE
:100650009F918F912F910F900FBE0F901F90189523
:100660008081F4CFEBE1F1E01382128288EE93E017
:10067000A0E0B0E084839583A683B78384E091E013
:100680009183808385EC90E09587848784EC90E06B
:100690009787868780EC90E0918B808B81EC90E04F
:1006A000938B828B82EC90E0958B848B86EC90E030
:1006B000978B868B118E128E138E148EEEECF1E0DA
:1006C00083E0838F86E0848FE8EBF1E094E0908311
:1006D00095E0918382830895CF93DF93CDB7DEB702
:1006E000EA970FB6F894DEBF0FBECDBF789484B5FD
:1006F000826084BD84B5816084BD85B5826085BD1E
:1007000085B5816085BD80916E00816080936E00AB
:10071000109281008091810082608093810080919D
:10072000810081608093810080918000816080934E
:1007300080008091B10084608093B1008091B0000E
:1007400081608093B00080917A00846080937A0009
:1007500080917A00826080937A0080917A00816033
:1007600080937A0080917A00806880937A0010925A
:10077000C100E0912B01F0912C0182E08083E09197
:100780002701F09128011082E0912901F0912A01BE
:1007900080E1808310923301E0912F01F0913001CC
:1007A00086E28083E0912D01F0912E0180818061AD
:1007B0008083E0912D01F0912E01808188608083FB
:1007C000E0912D01F0912E01808180688083E0917D
:1007D0002D01F0912E0180818F7D80836091E90150
:1007E0008BE191E00E942C018BE191E00E94EA00F4
:1007F000892BD1F33EECC32E31E0D32E8601F12CB0
:10080000E12CB12CA12C8BE191E00E94EA00892B14
:10081000D1F38BE191E00E94C800F80180839091B0
:10082000EA01891302C0F5010995FEE0EF16F10413
:1008300094F4F8018081813029F460E0802F8C19D4
:100840000E94F001F8018081823029F461E0802F5C
:100850008C190E94F001FFEFEF1AFF0A0F5F1F4F84
:100860008BE1E816F10479F6F12CE12C77247394EE
:1008700092E0692E20E0C22E20E0D22E8DE1EEEC37
:10088000F1E0DE015E9601900D928A95E1F76091AC
:10089000B8018BE191E00E942C018BE191E00E9474
:1008A000EA00892BD1F34E019EE1890E911C08EBE1
:1008B00011E0512C8BE191E00E94EA00892BD1F3E9
:1008C0008BE191E00E94C800F80183839091B90107
:1008D0008913B2C08DE1FE017E96DE011196019072
:1008E0000D928A95E1F710E000E0E1E0F0E0EC0F16
:1008F000FD1FE00FF11F8081813009F007C10E302C
:1009000011050CF009C1F801E255FF4F8491F8017F
:10091000E656FF4FE491F801EA57FF4FB490BB2031
:1009200061F081110E949901EB2DF0E0EE0FFF1FA5
:10093000E458FF4FA591B4918C918091EB01F8019F
:10094000E551FE4F8111D3C0718261818BE191E04D
:100950000E942C01E1E0F0E0EC0FFD1FE00FF11F21
:100960008081813009F0C5C0033111050CF44CC001
:100970000331110571F48EE00E947E028093FA012A
:1009800008311105B9F483E10E947E028093FF01D2
:1009900033C00431110531F48FE00E947E02809350
:1009A000FB01EECF0531110571F480E10E947E025A
:1009B0008093FC010931110571F484E10E947E02EB
:1009C0008093000219C00631110571F481E10E9483
:1009D0007E028093FD010A31110571F485E10E94C8
:1009E0007E028093010208C00731110549F682E1B9
:1009F0000E947E028093FE01F801E951FE4F608162
:100A00008BE191E00E942C010F5F1F4F0B3111050C
:100A100009F06BCFC114D10409F430CF0E94F60065
:100A2000882309F42BCF0E94000028CFF801E5515C
:100A3000FE4F118260E0E4CF9091BA01891302C0A9
:100A4000F7010995F40181914F018230C1F4C80189
:100A5000885B91405C019EE0A916B104BCF4F801EA
:100A60008381813021F460E0852D0E94C201F8016C
:100A70008381823021F461E0852D0E94C2010F5FE5
:100A80001F4F539483E1581215CFC4CFFEE0AF1629
:100A9000B10479F46091C90170E083E00E94210201
:100AA0006091CC0170E089E0E1E1AE16B10459F447
:100AB0001BC08FE0A816B10479F46091CA0170E000
:100AC00085E00E942102F2E1AF16B104C1F6609107
:100AD000CD0170E08BE008C06091CB0170E086E052
:100AE00090E1A916B104E1F60E942102C8CF61820B
:100AF0002CCF0E3011050CF499CF033111050CF4F5
:100B000083CFF801E951FE4F108294CF0E301105CA
:100B100081F703E110E01ECF0E30110509F024CF5C
:100B2000F8CFEE0FFF1F0590F491E02D0994F89493
:020B3000FFCFF5
:100B3200000000002C018C00B9007901EA00C80015
:020B4200DC00D5
:107800000C94343C0C94513C0C94513C0C94513CE1
:107810000C94513C0C94513C0C94513C0C94513CB4
:107820000C94513C0C94513C0C94513C0C94513CA4
:107830000C94513C0C94513C0C94513C0C94513C94
:107840000C94513C0C94513C0C94513C0C94513C84
:107850000C94513C0C94513C0C94513C0C94513C74
:107860000C94513C0C94513C11241FBECFEFD8E036
:10787000DEBFCDBF11E0A0E0B1E0ECE9FFE702C060
:1078800005900D92A230B107D9F712E0A2E0B1E065
:1078900001C01D92AD30B107E1F70E942D3D0C945F
:1078A000CC3F0C94003C982F959595959595959582
:1078B000905D8F708A307CF0282F295A8091C0000B
:1078C00085FFFCCF9093C6008091C00085FFFCCF60
:1078D0002093C6000895282F205DF0CF982F809127
:1078E000C00085FFFCCF9093C6000895EF92FF92F1
:1078F0000F931F93EE24FF2487018091C00087FD22
:1079000017C00894E11CF11C011D111D81E4E8164B
:1079100082E4F8068FE0080780E0180770F3E09132
:107920000401F091050109958091C00087FFE9CF1E
:107930008091C6001F910F91FF90EF9008950E94D3
:10794000763C982F8091C00085FFFCCF9093C600B5
:1079500091362CF490330CF09053892F089597555D
:10796000892F08951F930E949F3C182F0E949F3CCF
:107970001295107F810F1F9108951F93182F882350
:1079800021F00E94763C1150E1F71F9108951F935A
:10799000182F0E94763C803249F0809103018F5F5E
:1079A000809303018530C1F01F9108958091C0003C
:1079B00085FFFCCF84E18093C6008091C00085FFE5
:1079C000FCCF1093C6008091C00085FFFCCF80E102
:1079D0008093C6001F910895E0910401F091050184
:1079E00009951F9108950E94763C803241F0809164
:1079F00003018F5F80930301853081F008958091AA
:107A0000C00085FFFCCF84E18093C6008091C00058
:107A100085FFFCCF80E18093C6000895E0910401CA
:107A2000F09105010995089540E951E08823A1F0FE
:107A30002D9A28EE33E0FA013197F1F721503040CA
:107A4000D1F72D9828EE33E0FA013197F1F7215064
:107A50003040D1F7815061F708953F924F925F9285
:107A60006F927F928F929F92AF92BF92CF92DF924E
:107A7000EF92FF920F931F93CF93DF93000080E16B
:107A80008093C4001092C50088E18093C10086E015
:107A90008093C2005098589A259A81E00E94143D24
:107AA00024E1F22E9EE1E92E85E9D82E0FE0C02ECA
:107AB00010E1B12EAA24A394B1E49B2EA6E58A2E50
:107AC000F2E57F2EE0E26E2E79E4572E63E5462E36
:107AD00050E5352E0E94763C8033B1F18133B9F107
:107AE000803409F46FC0813409F476C0823409F41B
:107AF00085C0853409F488C0803531F1823521F1A3
:107B0000813511F1853509F485C0863509F48DC0BC
:107B1000843609F496C0843709F403C1853709F423
:107B200072C1863709F466C0809103018F5F80932C
:107B30000301853079F6E0910401F0910501099582
:107B40000E94763C803351F60E94F33CC3CF0E94E2
:107B5000763C803249F78091C00085FFFCCFF092DF
:107B6000C6008091C00085FFFCCF9092C600809136
:107B7000C00085FFFCCF8092C6008091C00085FFC9
:107B8000FCCF7092C6008091C00085FFFCCF609250
:107B9000C6008091C00085FFFCCF5092C600809146
:107BA000C00085FFFCCF4092C6008091C00085FFD9
:107BB000FCCF3092C6008091C00085FFFCCFB09210
:107BC000C60088CF0E94763C863808F4BDCF0E945C
:107BD000763C0E94F33C7ECF0E94763C803809F4CC
:107BE0009CC0813809F40BC1823809F43CC1883942
:107BF00009F48FC080E00E94C73C6CCF84E10E94F2
:107C0000BD3C0E94F33C66CF85E00E94BD3C0E94D3
:107C1000F33C60CF0E94763C809306010E94763C44
:107C2000809307010E94F33C55CF0E94763C80333D
:107C300009F41DC183E00E94BD3C80E00E94C73C66
:107C400049CF0E94763C809309020E94763C809343
:107C5000080280910C028E7F80930C020E94763C79
:107C6000853409F415C18091080290910902892B8D
:107C700089F000E010E00E94763CF801E85FFE4FDA
:107C800080830F5F1F4F80910802909109020817AF
:107C9000190788F30E94763C803209F045CF809125
:107CA0000C0280FF01C16091060170910701660F0F
:107CB000771F7093070160930601A0910802B091AD
:107CC00009021097C9F0E8E0F1E09B01AD014E0F09
:107CD0005F1FF999FECF32BD21BD819180BDFA9A17
:107CE000F99A2F5F3F4FE417F50799F76A0F7B1F4B
:107CF00070930701609306018091C00085FFFCCF5F
:107D0000F092C6008091C00085FFFCCFB092C60003
:107D1000E1CE83E00E94C73CDDCE82E00E94C73CFA
:107D2000D9CE0E94763C809309020E94763C8093D3
:107D300008028091060190910701880F991F909386
:107D40000701809306010E94763C853409F4A6C0A1
:107D500080910C028E7F80930C020E94763C8032D0
:107D600009F0B8CE8091C00085FFFCCFF092C6002C
:107D7000609108027091090261157105B9F140E046
:107D800050E080910C02A82FA170B82FB27011C0E2
:107D9000BB2309F45CC0E0910601F0910701319624
:107DA000F0930701E09306014F5F5F4F46175707B7
:107DB000E8F4AA2369F3F999FECF209106013091E6
:107DC000070132BD21BDF89A90B58091C00085FFB2
:107DD000FCCF9093C6002F5F3F4F30930701209355
:107DE00006014F5F5F4F4617570718F38091C00099
:107DF00085FDE5CE8091C00085FFF8CFE0CE81E023
:107E00000E94C73C67CE0E94763C803209F08CCE3F
:107E10008091C00085FFFCCFF092C6008091C00029
:107E200085FFFCCFE092C6008091C00085FFFCCFAB
:107E3000D092C6008091C00085FFFCCFC092C600E2
:107E40008091C00085FFFCCFB092C60043CEE09188
:107E50000601F091070194918091C00085FFFCCF4D
:107E60009093C6009CCF80E10E94C73C33CE0E9415
:107E7000763C0E94763C182F0E94763C112309F430
:107E800083C0113009F484C08FE00E94C73C22CE29
:107E900080910C02816080930C02E5CE80910C02EF
:107EA000816080930C0259CF809107018823880F4D
:107EB000880B8A2180930B02809106019091070123
:107EC000880F991F90930701809306018091080203
:107ED00080FF09C080910802909109020196909359
:107EE000090280930802F894F999FECF1127E091D6
:107EF0000601F0910701C8E0D1E08091080290915D
:107F00000902103091F40091570001700130D9F34B
:107F100003E000935700E89500915700017001308D
:107F2000D9F301E100935700E89509901990009169
:107F3000570001700130D9F301E000935700E89534
:107F40001395103498F011270091570001700130FB
:107F5000D9F305E000935700E895009157000170B0
:107F60000130D9F301E100935700E895329602976A
:107F700009F0C7CF103011F00296E5CF112480919F
:107F8000C00085FFB9CEBCCE8EE10E94C73CA2CD19
:0C7F900085E90E94C73C9ECDF894FFCF0D
:027F9C00800063
:040000030000780081
:00000001FF
