:100000000C9462000C948A000C948A000C948A0070
:100010000C948A000C948A000C948A000C948A0038
:100020000C948A000C948A000C948A000C948A0028
:100030000C948A000C948A000C948A000C948A0018
:100040000C9490020C948A000C9400030C94DA0235
:100050000C948A000C948A000C948A000C948A00F8
:100060000C948A000C948A000000000024002700F1
:100070002A0000000000250028002B0000000000DE
:1000800023002600290004040404040404040202DA
:100090000202020203030303030301020408102007
:1000A0004080010204081020010204081020000012
:1000B0000008000201000003040700000000000027
:1000C0000000320311241FBECFEFD8E0DEBFCDBF4A
:1000D00011E0A0E0B1E0E2EBFDE002C005900D927E
:1000E000A231B107D9F722E0A2E1B1E001C01D922F
:1000F000AC30B207E1F710E0C2E6D0E004C02197CF
:10010000FE010E94D106C136D107C9F70E946C03D7
:100110000C94D7060C940000AF92BF92CF92DF925E
:10012000EF92FF920F931F93CF93DF936C017B01AC
:100130008B01040F151FEB015E01AE18BF08C0173D
:10014000D10759F06991D601ED91FC910190F081B0
:10015000E02DC6010995892B79F7C501DF91CF9173
:100160001F910F91FF90EF90DF90CF90BF90AF90D5
:100170000895FC01538D448D252F30E0842F90E0AD
:10018000821B930B541710F0CF9608950197089592
:10019000FC01918D828D981761F0A28DAE0FBF2F5B
:1001A000B11D5D968C91928D9F5F9F73928F90E0B1
:1001B00008958FEF9FEF0895FC01918D828D981720
:1001C00031F0828DE80FF11D858D90E008958FEF5D
:1001D0009FEF0895FC01918D228D892F90E0805C26
:1001E0009F4F821B91098F73992708958BE191E0AE
:1001F0000E94EA0021E0892B09F420E0822F089573
:1002000080E090E0892B29F00E94F60081110C9487
:1002100000000895FC01A48DA80FB92FB11DA35AA9
:10022000BF4F2C91848D90E001968F739927848F16
:10023000A689B7892C93A089B1898C918370806439
:100240008C93938D848D981306C00288F389E02DDA
:1002500080818F7D80830895EF92FF920F931F938B
:10026000CF93DF93EC0181E0888F9B8D8C8D981369
:100270001AC0E889F989808185FF15C09FB7F89475
:10028000EE89FF896083E889F989808183708064C1
:1002900080839FBF81E090E0DF91CF911F910F910C
:1002A000FF90EF900895F62E0B8D10E00F5F1F4F1B
:1002B0000F731127E02E8C8D8E110CC00FB607FC2A
:1002C000FACFE889F989808185FFF5CFCE010E94B8
:1002D0000A01F1CFEB8DEC0FFD2FF11DE35AFF4F1B
:1002E000F0829FB7F8940B8FEA89FB898081806246
:1002F000CFCFCF93DF93EC01888D8823B9F0AA8903
:10030000BB89E889F9898C9185FD03C0808186FDD0
:100310000DC00FB607FCF7CF8C9185FFF2CF80811F
:1003200085FFEDCFCE010E940A01E9CFDF91CF9189
:100330000895833081F028F4813099F08230A9F05B
:1003400008958730A9F08830C9F08430B1F48091E5
:1003500080008F7D03C0809180008F778093800024
:10036000089584B58F7784BD089584B58F7DFBCFC4
:100370008091B0008F778093B00008958091B00095
:100380008F7DF9CF1F93CF93DF93282F30E0F901B2
:10039000E255FF4F8491F901E656FF4FD491F901E0
:1003A000EA57FF4FC491CC23A9F0162F81110E9468
:1003B0009901EC2FF0E0EE0FFF1FEE58FF4FA591D3
:1003C000B4918FB7F894EC91111108C0D095DE2349
:1003D000DC938FBFDF91CF911F910895DE2BF8CF73
:1003E000CF93DF9390E0FC01E656FF4F24918A57AC
:1003F0009F4FFC0184918823D1F090E0880F991FD2
:10040000FC01E859FF4FA591B491FC01EE58FF4F54
:10041000C591D49161110EC09FB7F8948C91E22FD1
:10042000E0958E238C932881E223E8839FBFDF91A0
:10043000CF9108958FB7F894EC91E22BEC938FBF96
:10044000F6CF1F93CF93DF93182FEB0161E00E944B
:10045000F001209739F460E0812FDF91CF911F9157
:100460000C94C201CF3FD10511F461E0F5CFE12F2B
:10047000F0E0E255FF4FE491E33031F140F4E13038
:10048000B1F0E230E1F0C038D1057CF7E4CFE730DD
:1004900029F1E83059F1E430B1F7809180008062B1
:1004A00080938000D0938B00C0938A0004C084B5F1
:1004B000806884BDC7BDDF91CF911F91089584B539
:1004C000806284BDC8BDF7CF809180008068809332
:1004D0008000D0938900C0938800EDCF8091B00058
:1004E00080688093B000C093B300E5CF8091B000E6
:1004F00080628093B000C093B400DDCF8E508064E2
:1005000080937C0080917A00806480937A0080914F
:100510007A0086FDFCCF8091780090917900089553
:100520001F920F920FB60F9211242F933F938F9328
:100530009F93AF93BF938091170190911801A09161
:100540001901B0911A013091160123E0230F2D37C4
:1005500058F50196A11DB11D209316018093170136
:1005600090931801A0931901B0931A018091120180
:1005700090911301A0911401B09115010196A11D54
:10058000B11D8093120190931301A0931401B093B5
:100590001501BF91AF919F918F913F912F910F9036
:1005A0000FBE0F901F90189526E8230F0296A11DED
:1005B000B11DD2CF1F920F920FB60F9211242F931D
:1005C0003F934F935F936F937F938F939F93AF93DB
:1005D000BF93EF93FF938BE191E00E940A01FF919B
:1005E000EF91BF91AF919F918F917F916F915F91AB
:1005F0004F913F912F910F900FBE0F901F90189524
:100600001F920F920FB60F9211242F938F939F93E7
:10061000EF93FF93E0912B01F0912C018081E09109
:100620003101F091320182FD1BC090818091340133
:100630008F5F8F7320913501821741F0E091340173
:10064000F0E0E55EFE4F958F80933401FF91EF91CE
:100650009F918F912F910F900FBE0F901F90189523
:100660008081F4CFEBE1F1E01382128288EE93E017
:10067000A0E0B0E084839583A683B78384E091E013
:100680009183808385EC90E09587848784EC90E06B
:100690009787868780EC90E0918B808B81EC90E04F
:1006A000938B828B82EC90E0958B848B86EC90E030
:1006B000978B868B118E128E138E148EEFECF1E0D9
:1006C00083E0848F86E0858FE8EBF1E094E090830F
:1006D00095E0918382830895CF93DF93CDB7DEB702
:1006E000EC970FB6F894DEBF0FBECDBF789484B5FB
:1006F000826084BD84B5816084BD85B5826085BD1E
:1007000085B5816085BD80916E00816080936E00AB
:10071000109281008091810082608093810080919D
:10072000810081608093810080918000816080934E
:1007300080008091B10084608093B1008091B0000E
:1007400081608093B00080917A00846080937A0009
:1007500080917A00826080937A0080917A00816033
:1007600080937A0080917A00806880937A0010925A
:10077000C100E0912B01F0912C0182E08083E09197
:100780002701F09128011082E0912901F0912A01BE
:1007900080E1808310923301E0912F01F0913001CC
:1007A00086E28083E0912D01F0912E0180818061AD
:1007B0008083E0912D01F0912E01808188608083FB
:1007C000E0912D01F0912E01808180688083E0917D
:1007D0002D01F0912E0180818F7D80836091EB014E
:1007E0008BE191E00E942C018BE191E00E94EA00F4
:1007F000892BD1F3AFECCA2EA1E0DA2E8601F12CC1
:10080000E12CB12CA12C8BE191E00E94EA00892B14
:10081000D1F38BE191E00E94C800D8018C939091B4
:10082000EC01891302C0F5010995FEE0EF16F10411
:1008300094F4D8018C91813029F460E0802F8C19D8
:100840000E94F001F8018081823029F461E0802F5C
:100850008C190E94F001FFEFEF1AFF0A0F5F1F4F84
:100860002CE1E216F10479F6512C412C62E0662E5F
:1008700070E0A72E70E0B72EE3E0EE2EF2E07F2EC0
:1008800033243394FF24F3948EE1EFECF1E0DE01A6
:100890005F9601900D928A95E1F76091B8018BE126
:1008A00091E00E942C018BE191E00E94EA00892BEB
:1008B000D1F34E013FE1830E911C58EBC52E51E060
:1008C000D52E212C8BE191E00E94EA00892BD1F3F7
:1008D0008BE191E00E94C800D60113968C93909111
:1008E000B90189139AC18EE1FE017F96DE0111964E
:1008F00001900D928A95E1F710E000E0E1E0F0E070
:10090000EC0FFD1FE00FF11F8081813009F005C25F
:100910000E3011050CF007C2F801E255FF4F84912B
:10092000F801E656FF4FE491F801EA57FF4FD490E3
:10093000DD2061F081110E949901ED2DF0E0EE0FB4
:10094000FF1FE458FF4FA591B4918C918091ED0168
:10095000F801E351FE4F8111BFC1318261818BE10A
:1009600091E00E942C01E1E0F0E0EC0FFD1FE00FB0
:10097000F11F8081813009F0B1C1043111050CF4FF
:10098000FEC104311105B9F58EE00E947E028F3F51
:10099000910509F0ACF48093FC011092FD0109313E
:1009A000110509F062C083E10E947E028F3F91052C
:1009B00011F00CF0D8C08093060210920702CCC14F
:1009C0008115B2E09B072CF48093FC01F092FD01AD
:1009D000E6CF8115E3E09E072CF48093FC01709232
:1009E000FD01DDCF8115F4E09F07CCF68093FC017B
:1009F000E092FD01D4CF0531110541F58FE00E9451
:100A00007E028F3F910509F02CF48093FE01109235
:100A1000FF01C5CF811522E092072CF48093FE01DF
:100A2000F092FF01BCCF811533E093072CF4809343
:100A3000FE017092FF01B3CF8115A4E09A070CF07C
:100A4000AECF8093FE01E092FF01A9CF06311105E0
:100A500009F06EC180E10E947E028F3F910509F08E
:100A6000A4F480930002109201020A31110599F555
:100A700084E10E947E028F3F910511F00CF08FC03F
:100A8000809308021092090267C18115B2E09B07AA
:100A90002CF480930002F0920102E7CF8115E3E08D
:100AA0009E072CF48093000270920102DECF811524
:100AB000F4E09F07D4F680930002E0920102D5CFC4
:100AC00081E10E947E028F3F910509F0ACF4809392
:100AD0000202109203020B31110509F03DC185E1BC
:100AE0000E947E028F3F910511F00CF074C080933C
:100AF0000A0210920B0230C1811522E092072CF4F9
:100B000080930202F0920302E6CF811533E093074F
:100B10002CF48093020270920302DDCF8115A4E0D1
:100B20009A07CCF680930202E0920302D4CF81159B
:100B3000B2E09B072CF480930402F09205020CC1F2
:100B40008115E3E09E072CF4809304027092050265
:100B500003C18115F4E09F070CF0FEC080930402EE
:100B6000E0920502F9C0811522E092072CF48093EF
:100B70000602F0920702F0C0811533E093072CF4CF
:100B80008093060270920702E7C08115A4E09A07DD
:100B90000CF0E2C080930602E0920702DDC08115EE
:100BA000B2E09B072CF480930802F0920902D4C0B3
:100BB0008115E3E09E072CF48093080270920902ED
:100BC000CBC08115F4E09F070CF0C6C080930802EB
:100BD000E0920902C1C0811522E092072CF48093B3
:100BE0000A02F0920B02B8C0811533E093072CF48F
:100BF00080930A0270920B02AFC08115A4E09A079D
:100C00000CF0AAC080930A02E0920B02A5C0F80182
:100C1000E351FE4F118260E0AEC09091BA0189139A
:100C200002C0F2010995D4018D914D018230B9F4D1
:100C30008601085B11400E301105CCF4F60183816A
:100C4000813021F460E0822D0E94C201D60113960A
:100C50008C91823021F461E0822D0E94C201BFEFAD
:100C6000CB1ADB0A2394E4E12E122CCE8EC00E3078
:100C7000110581F46091C90170E083E00E942102B6
:100C80006091CC0170E089E00131110561F40E94AE
:100C90002102E5CF0F30110571F46091CA0170E0B7
:100CA00085E00E9421026091CD0170E08AE002316E
:100CB000110551F4ECCF0031110511F76091CB0112
:100CC00070E086E00E9421020331110541F6609137
:100CD000CE0170E08BE0DBCF618240CE0E3011059B
:100CE0000CF495CF043111050CF449C0C801880FEC
:100CF000991F4A97FC01E351FE4F11829C0122513A
:100D00003E4F6901D90111961C9261818BE191E0FE
:100D10000E942C01F60161812EC00E301105F1F602
:100D200004E110E020CE0E30110509F026CEF8CFF8
:100D30000731110509F4C4CE0831110509F02FCE91
:100D400082E10E947E028F3F910511F00CF0EFCE00
:100D50008093040210920502C801880F991FFC01BC
:100D6000ED52FE4F6F0161818BE191E00E942C01F9
:100D7000D60112966C918BE191E00E942C010F5FDD
:100D80001F4F0C31110509F0B9CDA114B10409F4BC
:100D90007BCD0E94F600882309F472CD0E940000EA
:100DA0006FCDEE0FFF1F0590F491E02D0994F8949C
:020DB000FFCF73
:100DB200000000002C018C00B9007901EA00C80093
:020DC200DC0053
:00000001FF
